:100000000C94E1000C9409010C9409010C94090171
:100010000C9409010C9409010C9409010C94640DD1
:100020000C9409010C9409010C9409010C945E0CC8
:100030000C9409010C9409010C9409010C94090118
:100040000C941A0D0C9409010C9409010C940901EB
:100050000C9409010C9409010C9409010C940901F8
:100060000C943F0B0C94090100407A10F35A00A045
:10007000724E18090010A5D4E80000E87648170071
:1000800000E40B54020000CA9A3B000000E1F505B1
:10009000000080969800000040420F000000A086FB
:1000A00001000000102700000000E803000000002D
:1000B0006400000000000A000000000001000000D1
:1000C00000002C76D888DC674F0823DFC1DFAE59EB
:1000D000E1B1B796E5E3E453C63AE651997696E87E
:1000E000E6C28426EB898C9B62ED407C6FFCEFBC02
:1000F0009C9F40F2BAA56FA5F490055A2AF75C932D
:100100006B6CF9676DC11BFCE0E40D47FEF520E662
:10011000B500D0ED902E0300943577050080841E45
:10012000080000204E0A000000C80C333333330FA0
:10013000986E12831141EF8D2114893BE65516CF3D
:10014000FEE6DB18D1844B381BF77C1D901DA4BB49
:10015000E424203284725E228100C9F124ECA1E5FE
:100160003D270200000000240027002A00000000B4
:1001700000250028002B0000000000230026002995
:100180000004040404040404040202020202020340
:10019000030303030301020408102040800102044A
:1001A00008102001020408102000000008000201CD
:1001B0000000030407000000000000000000C00D64
:1001C000F61211241FBECFEFD8E0DEBFCDBF12E084
:1001D000A0E0B1E0EEEBF4E302C005900D92AC318B
:1001E000B107D9F723E0ACE1B2E001C01D92A5361A
:1001F000B207E1F710E0C0EED0E004C02197FE01A5
:100200000E943417CF3DD107C9F70E941A0E0C94F3
:10021000521A0C940000CF92DF92EF92FF92DC0111
:10022000A03282E0B807D4F5A53BB10514F0A4EBE9
:10023000B0E04091440328E830E0241B310947FD39
:100240003395220F331F220F331F6901330FEE083E
:10025000FF084091450328E532E0241B310947FDA2
:100260003395220F331F220F331F032E000C440B34
:10027000550B2C193D094E095F09B7FF02C0B0E0CC
:10028000A0E00E94A91624EB30E040E050E00E947C
:100290007F16C20ED31EE41EF51ED601E091430365
:1002A000EC3080F52091440388E890E0821B9109AE
:1002B00027FD9395880F991F880F991FA817B907D5
:1002C00084F02091450388E592E0821B910927FD87
:1002D0009395880F991F880F991FA817B9070CF4D9
:1002E000CD010297880F991F4FB7F8942E2F30E059
:1002F000F901EE0FFF1FE20FF31FE25EFC4F928346
:1003000081834FBFFF90EF90DF90CF9008952091B1
:10031000B902260F3327331F21323105ECF4209127
:10032000DF02FC0190E080E0243069F082E0089573
:10033000A091B9022191AC0149565D4FA40FB52F90
:10034000B11D2C930196861798F38091B902680F1E
:100350006093B90280E0089581E0089508950895BA
:100360000895E0918E0280918D02E81730F4F0E05C
:10037000E359FD4F808190E008958FEF9FEF08953E
:1003800090918E0280918D022FEF3FEF981748F4E5
:10039000E92FF0E0E359FD4F208130E09F5F90931B
:1003A0008E02C901089580918D0290918E02891B61
:1003B000990B0895CF92DF92EF92FF920F931F93C4
:1003C000CF93DF937C01CB018A0120916C02222321
:1003D00089F0EB016B01C40ED51ECC15DD0569F06B
:1003E0006991D701ED91FC910190F081E02DC70159
:1003F0000995F3CF642F0E948701C801DF91CF9147
:100400001F910F91FF90EF90DF90CF900895CF93C1
:10041000DF931F92CDB7DEB7698320916C02222350
:10042000F9F020918F02203258F021E030E0FC01F9
:100430003383228390E080E00F90DF91CF91089585
:1004400080919002E82FF0E0E45BFD4F998190836A
:100450008F5F8093900280938F0281E090E0ECCFD9
:1004600061E0CE0101960E948701F7CF833081F0D1
:1004700028F4813099F08230A9F008958730A9F0EE
:100480008830C9F08430B1F4809180008F7D03C042
:10049000809180008F7780938000089584B58F7756
:1004A00084BD089584B58F7DFBCF8091B0008F7798
:1004B0008093B00008958091B0008F7DF9CFCF93E5
:1004C000DF93282F30E0F901E755FE4F8491F901C1
:1004D000EB56FE4FD491F901EF57FE4FC491CC2358
:1004E000A1F081110E943602EC2FF0E0EE0FFF1F09
:1004F000E958FE4FA591B491EC91ED2381E090E095
:1005000009F480E0DF91CF91089580E090E0FACF88
:100510001F93CF93DF93282F30E0F901E755FE4F6B
:100520008491F901EB56FE4FD491F901EF57FE4F3C
:10053000C491CC23A9F0162F81110E943602EC2F12
:10054000F0E0EE0FFF1FE359FE4FA591B4918FB776
:10055000F894EC91111108C0D095DE23DC938FBF85
:10056000DF91CF911F910895DE2BF8CF1092DF021B
:1005700081E08093E1021092E00261E082E10E945A
:10058000880261E083E10E948802E9EBF0E080816B
:100590008E7F808380818D7F808388E48093B80004
:1005A00085E48093BC000895CF93DF9391E090930E
:1005B00096028823B9F0C091B800D091BA0080911A
:1005C000BC008A7B8093BC0060E082E10E948802CC
:1005D00060E083E10E9488020E94B602D093BA00D4
:1005E000C093B800DF91CF910895CF93DF9390E04F
:1005F000FC01EB56FE4F24918F579E4FFC018491D6
:100600008823D1F090E0880F991FFC01ED59FE4F2F
:10061000A591B491FC01E359FE4FC591D4916111AC
:100620000EC09FB7F8948C91E22FE0958E238C93A7
:100630002881E223E8839FBFDF91CF9108958FB790
:10064000F894EC91E22BEC938FBFF6CF8E50806440
:1006500080937C0080917A00806480937A008091FE
:100660007A0086FDFCCF8091780090917900089502
:100670003FB7F8948091460290914702A0914802BA
:10068000B091490226B5A89B05C02F3F19F00196ED
:10069000A11DB11D3FBFBA2FA92F982F8827BC01DC
:1006A000CD01620F711D811D911D42E0660F771F04
:1006B000881F991F4A95D1F70895CF92DF92EF9244
:1006C000FF920F931F93CF93DF93FC01C48121E02E
:1006D00020936C02C0934B021092900210928F02F2
:1006E0008485682B82E193E00E940702D0918F02FB
:1006F000D13208F092C00E9438036B017C018091D6
:10070000DF02811165C082E08093DF0281E0809387
:10071000E1028FEF8093DE0210920303D093020375
:10072000ACE4B2E0E2EEF2E080E0D81385C01092D3
:10073000040380910403CC0FC82BC0930403809161
:10074000E002813009F07CC01092E0020E94380380
:100750006B017C01809104038093BB008091920225
:1007600090919302A0919402B0919502892B8A2BCB
:100770008B2B99F00E943803009192021091930202
:1007800020919402309195026C197D098E099F0980
:100790000617170728073907E0F18091BC0083FD91
:1007A000D9CF85EC8093BC000E9438036B017C019B
:1007B0008091DF02823009F445C08091DE028F3FD4
:1007C00061F18091DE02803241F18091DE0225C02C
:1007D0008091920290919302A0919402B09195021F
:1007E000892B8A2B8B2B09F48ACF0E943803009126
:1007F00092021091930220919402309195026C190B
:100800007D098E099F09061717072807390708F081
:1008100076CF809191020E94D402109290021092A1
:100820008F0210926C02DF91CF911F910F91FF9078
:10083000EF90DF90CF9008959D9191938F5F75CF4A
:1008400085EEB0CF8091920290919302A091940294
:10085000B0919502892B8A2B8B2B09F4A9CF0E948A
:1008600038030091920210919302209194023091EA
:1008700095026C197D098E099F090617170728072D
:10088000390708F095CFC5CF8F929F92AF92BF9254
:10089000CF92DF92EF92FF924B015C010E943803EE
:1008A0006B017C010E9438036C197D098E099F0938
:1008B000683E734081059105A8F321E0821A9108F2
:1008C000A108B10888EEC80E83E0D81EE11CF11C17
:1008D00081149104A104B10429F7FF90EF90DF90F7
:1008E000CF90BF90AF909F908F9008958F929F92DE
:1008F000AF92BF92CF92DF92EF92FF920F931F932E
:10090000CF93DF9310920D0310920E0310920F03FA
:10091000109210031092110361E080E10E94F50231
:1009200060E080E10E94880264E170E080E090E095
:100930000E94440461E080E10E9488028BE990E01B
:100940000197F1F760E080E10E94F502C1E1D7E292
:1009500080E10E945F02892B89F42197C9F78EEF0D
:100960009FEFDF91CF911F910F91FF90EF90DF905C
:10097000CF90BF90AF909F908F900895C1E1D7E244
:1009800080E10E945F02019719F42197C9F7E7CF30
:1009900008E210E0C7E0D0E0EE24E394F12C91E10E
:1009A000C92E97E2D92E80E10E945F02892B29F49B
:1009B00081E0C81AD108B9F7D2CF0E9438034B01A1
:1009C0005C0181E1C82E87E2D82E80E10E945F029F
:1009D000019729F481E0C81AD108B9F7C0CF0E9465
:1009E0003803681979098A099B09693271058105FB
:1009F000910568F0ED2FF0E0EB5FFC4F80859701EB
:100A00000C2E01C0220F0A94EAF7822B8087C111B5
:100A100009C0DF5FC7E00150110909F0C0CF90E0C5
:100A200080E09FCFC150F7CF9091000189130BC098
:100A3000E2E6F1E0E4919FEF90930001E13049F0AC
:100A400028F0E23061F060E00C94880210926E00B1
:100A5000FACF90916F009D7F90936F00F4CF9091AB
:100A600070009D7F9093700091E09093B000909102
:100A7000B100987F94609093B1001092B300E3CFDF
:100A80004F925F926F927F928F929F92AF92BF929E
:100A9000CF92DF92EF92FF920F931F93CF938B0130
:100AA00049015A0190910001891799F09F3F09F47B
:100AB0008DC0CF911F910F91FF90EF90DF90CF905D
:100AC000BF90AF909F908F907F906F905F904F906E
:100AD0000895E2E6F1E0C491C7FDEBCF61E00E942A
:100AE000F5022801712C612CCC23E9F0980150E02B
:100AF00040E0C23009F0E3C028013A0160E970ED3E
:100B000083E090E00E947F1669017A0181E0C81AB3
:100B1000D108E108F1088FEFC816D104E104F1040F
:100B200009F00CF40DC168E478EE81E090E0A301D7
:100B300092010E947F1669017A0181E0C81AD108EA
:100B4000E108F108CC2309F419C1C23009F00CC145
:100B50008FEFC816D104E104F10409F00CF40CC1C4
:100B600064E274EF80E090E0A30192010E947F169E
:100B700069017A0181E0C81AD108E108F10885E02D
:100B80009091B100987F892B8093B1002FEF3FEFB8
:100B9000A90181149104A104B10409F014C1C13068
:100BA00009F4ACC0C23009F4BBC0C11182CFC7BCCC
:100BB0002093220230932302409324025093250273
:100BC00080916E00826080936E0073CF80930001ED
:100BD000E2E6F1E0C491CF3F09F46BCFC13039F1C7
:100BE00048F0C23009F445C0C7FD63CF61E00E9400
:100BF000F5027CCF14BC15BC94B5926094BD95B53C
:100C0000916095BD282F30E0F901EF57FE4FE49138
:100C1000F0E0EE0FFF1FE359FE4F45915491F901AB
:100C2000EB56FE4FE491E0931D02C0E057CF1092C7
:100C300080001092810090918100986090938100D3
:100C400090918100916090938100282F30E0F9010C
:100C5000EF57FE4FE491F0E0EE0FFF1FE359FE4F18
:100C600045915491F901EB56FE4FE491E0931C023B
:100C700035CF1092B0001092B1009091B000926008
:100C80009093B0009091B10091609093B100282FA3
:100C900030E0F901EF57FE4FE491F0E0EE0FFF1F57
:100CA000E359FE4F459154915093270240932602F9
:100CB000F901EB56FE4FE491E09328020FCF60E07C
:100CC00072E18AE790E00E947F1669017A0181E073
:100CD000C81AD108E108F108C13009F057CF809156
:100CE0008100887F8160809381002FEF3FEFA90111
:100CF00081149104A104B10409F065C0D092890067
:100D0000C092880020931E0230931F02409320025D
:100D10005093210280916F00826080936F00C9CE52
:100D2000C092B3002093290230932A0240932B02F1
:100D300050932C0280917000826080937000B9CE35
:100D400083E01ECF62E17AE780E090E0A3019201A8
:100D50000E947F1669017A0181E0C81AD108E10872
:100D6000F108C1E086E00CCF8FEFC816D104E10492
:100D7000F10409F03CF7C1E084E002CF93E08FEF8B
:100D8000C816D104E104F10489F084F062E17AE745
:100D900080E090E0A30192010E947F1669017A0130
:100DA00081E0C81AD108E108F10894E085B5887F90
:100DB000892B85BD2FEF3FEFA90181149104A10478
:100DC000B10409F4F4CED801AA0FBB1FA501940108
:100DD0000E949E1628EE33E040E050E00E94E816A4
:100DE000DECEAF92BF92CF92DF92EF92FF920F933F
:100DF0001F93CF93DF936C017B018B01040F151FB1
:100E0000EB015E01AE18BF08C017D10759F0699118
:100E1000D601ED91FC910190F081E02DC60109957C
:100E2000892B79F7C501DF91CF911F910F91FF9029
:100E3000EF90DF90CF90BF90AF900895FC01448178
:100E400055816081718186E493E00C94F1060895E8
:100E500090E080E008950F931F93CF938C01C62FED
:100E60000E945D036C2F6460C8010E945D036C2FBB
:100E70006B7FC8010E945D0383EC90E00197F1F75E
:100E8000CF911F910F9108950F931F93CF93DF93ED
:100E90008C01D62FC42F607F642B0E942B0780E12A
:100EA000D89FB00111246C2BC801DF91CF911F9105
:100EB0000F910C942B07CF93DF93CDB7DEB7289714
:100EC0000FB6F894DEBF0FBECDBF98E0E7E0F1E0CB
:100ED000DE01119601900D929A95E1F790914E03E3
:100EE000961708F46FEF262F30E0220F331F41E0F2
:100EF00050E04C0F5D1F240F351FF9016081680F12
:100F0000606840E086E493E028960FB6F894DEBF70
:100F10000FBECDBFDF91CF910C94440740E061E05C
:100F200086E493E00E9444078BE39FE10197F1F789
:100F300080914F03882321F060E080E00C945B07F0
:100F4000089541E00E94440781E090E0089585ED16
:100F50008093BC008091920290919302A0919402A0
:100F6000B09195020796A11DB11D23E0B695A795F6
:100F7000979587952A95D1F72091BC0024FD03C051
:100F80001092DF0208954091920250919302609175
:100F9000940270919502452B462B472B69F30097DD
:100FA000A105B10541F025E32A95F1F7000001976D
:100FB000A109B109E1CF809191020C94D402FC0106
:100FC00024813581232B39F421E0FB0180818823A2
:100FD00049F020E007C0808191810E94421A21E0FF
:100FE000892BB9F7822F08950F931F93CF93DF9327
:100FF000EC01162F042F6DE271E00E94DF078111D2
:101000000E948E07602F812F0E945B07CE01DF9127
:10101000CF911F910F910C941E070F931F93CF93A5
:10102000DF93EC0188819981009759F02A813B81F7
:101030002617370730F081E0DF91CF911F910F9194
:1010400008958B016F5F7F4F0E947419009759F0CC
:10105000998388831B830A832C813D81232B59F735
:10106000FC011082E8CF80E0E7CFEF92FF920F9370
:101070001F93CF93DF936115710541F480E0DF91F9
:10108000CF911F910F91FF90EF9008954115510559
:10109000B1F07B01EC010C811D81040F151FB8011B
:1010A0000E940D08882351F3288139818C819D810C
:1010B000B701820F931F0E944B1A1D830C8381E09E
:1010C000DECFCF93DF93EC0188819981009711F0F7
:1010D0000E94EB18198218821D821C821B821A82C0
:1010E000DF91CF910895CF93DF93EC01FB01019045
:1010F0000020E9F73197AF01461B570B0E943508D6
:10110000811103C0CE010E946108CE01DF91CF9111
:101110000895CF93DF93EC01FB01448155816081F9
:1011200071810E943508811103C0CE010E946108BF
:10113000CE01DF91CF910895EF92FF920F931F930D
:10114000CF93DF93EC017B018A01BA010E940D0865
:1011500081110BC0CE010E946108CE01DF91CF91B9
:101160001F910F91FF90EF9008951D830C83B7019D
:10117000888199810E944B1AF0CFFB0101900020D9
:10118000E9F73197AF01461B570B0C949C080F935E
:101190001F93CF93DF93CDB7DEB762970FB6F89466
:1011A000DEBF0FBECDBF8C01CB01F80111821082D2
:1011B00013821282158214824AE0BE016F5F7F4F54
:1011C0000E941813BE016F5F7F4FC8010E94BD08C7
:1011D00062960FB6F894DEBF0FBECDBFDF91CF9100
:1011E0001F910F910895FB01DC0111961C921E9234
:1011F00013961C921E92129715961C921E9214978B
:101200008617970749F0608171816115710521F09A
:10121000448155810C949C080895CF93DF93EC0191
:10122000CB01895E9340479778F469E371E08BE5E1
:1012300093E00E94BD086BE573E0CE010E94F308C5
:10124000CE01DF91CF910895CB018955924080392D
:10125000914018F460E471E0EACFCB018B5A910918
:101260008E3A914018F467E471E0E1CF6150710962
:101270006A3A710518F46EE471E0D9CF65E571E062
:10128000D6CFFC0111821082138212821582148241
:10129000FB0101900020E9F73197AF01461B570B86
:1012A0000C949C08FC0180819181009711F00C94B2
:1012B000EB180895CF92DF92EF92FF920F931F9356
:1012C000CF93DF9300D000D000D0CDB7DEB76C0154
:1012D000FC01008111810115110579F07801F701F8
:1012E00081917F01882349F0082E000C990B0E9400
:1012F000311AF70131978083F2CFF601848195810D
:10130000892B09F496C00115110509F492C0F80162
:1013100080818C3409F456C0873509F499C086342D
:1013200009F087C020E030E0A90168E572E0809113
:1013300054030E9440056CE370E080E090E00E945E
:10134000440420E030E0A90160E273E0809154039E
:101350000E9440056EE170E080E090E00E9444044D
:1013600020E030E0A9016CEB72E0809154030E9410
:10137000400560E570E080E090E00E94440420E0D9
:1013800030E0A9016CED75E0809154030E944005A6
:101390006CE370E080E090E00E94440420E030E0E4
:1013A000A90168E978E0809154030E94400566E451
:1013B00070E080E090E00E944404809154030E9419
:1013C000140537C00E948E076CE571E0CE010196CE
:1013D0000E94410940E060E0CE0101960E94F407BE
:1013E000CE0101960E94520968E671E0CE01019695
:1013F0000E94410941E063E0CE0101960E94F4079A
:10140000CE0101960E94520903E010E02CE231E087
:1014100040E050E060E971E0809154030E94400593
:1014200064EF71E080E090E00E94440401501109F3
:1014300069F726960FB6F894DEBF0FBECDBFDF91D9
:10144000CF911F910F91FF90EF90DF90CF90089573
:101450002EEE32E040E050E06CE073E08091540307
:101460000E94400568EE73E080E090E00E94440432
:10147000E0CF8F929F92AF92BF92CF92DF92EF9286
:10148000FF920F931F93CF93DF9300D000D000D033
:10149000CDB7DEB78C018091450358E5C52E52E0EB
:1014A000D52EC81AD10887FDD394CC0CDD1CCC0CEA
:1014B000DD1C0D2C000CEE08FF088091440378E839
:1014C000872E912C881A910887FD9394880C991C7B
:1014D000880C991C092C000CAA08BB0880914303B6
:1014E0008F3F09F46AC090E0FC01EE0FFF1FE80F88
:1014F000F91FE25EFC4F8181928133E0880F991FD2
:101500003A95E1F7B0E0A0E044E0B595A79597954E
:1015100087954A95D1F702969C012F5F3F4F032E86
:10152000000C440B550B281939094A095B09A4EB37
:10153000B0E00E949E16A7019601281939094A09B0
:101540005B090E947F1679010E948E0767E771E0B0
:10155000CE0101960E944109B801CE0101960E9478
:1015600089080E941E07CE0101960E94520961E877
:1015700071E0CE0101960E944109CE0101960E94C0
:101580005A09CE0101960E94520960E971E0C80132
:101590000E94DF078823A1F089EBE816F1043CF5EF
:1015A000C7010E940B016AE070E080E090E00E94B9
:1015B00044048FEFE81AF80AEFCF90E080E0ACCF58
:1015C00068E971E0C8010E94DF07882381F01E14DA
:1015D0001F046CF4C7010E940B016AE070E080E018
:1015E00090E00E94440481E0E81AF108F0CF60ED39
:1015F00077E080E090E00E94440461E08091550330
:101600000E94880260ED77E080E090E00E94440450
:1016100060E0809155030E94880264EF71E080E0F1
:1016200090E00E9444040E948E07B801CE0101960A
:101630000E94F30860EA71E0CE0101960E947308EF
:101640000E941E07CE0101960E94520960ED77E0CC
:1016500080E090E00E94440426960FB6F894DEBF26
:101660000FBECDBFDF91CF911F910F91FF90EF90F3
:10167000DF90CF90BF90AF909F908F9008951F9272
:101680000F920FB60F9211242F933F934F935F93B6
:101690006F937F938F939F93AF93BF93EF93FF933A
:1016A0008091B900887F803609F44AC0F0F588320D
:1016B00009F4A7C018F5803109F49BC0B8F4882359
:1016C00009F4F9C0883009F494C0FF91EF91BF91FB
:1016D000AF919F918F917F916F915F914F913F91CA
:1016E0002F910F900FBE0F901F901895883109F41D
:1016F00088C0803251F78093DE0214C0803409F430
:101700009DC040F48033B9F38833F9F68093DE024C
:1017100085ECB0C0803509F485C0883509F496C0E1
:10172000883499F60E94A707D0CF883909F48CC075
:1017300038F5883729F050F4883611F0803729F6CB
:1017400083E08093DF021092DD0257C0883809F4ED
:101750007BC0803919F0803809F0B7CF8091DD0265
:10176000803208F071C0E091DD0281E08E0F80933D
:10177000DD028091BB00F0E0E354FD4F80833DC06B
:10178000803B39F0E0F4803A09F479C0883A09F0F6
:101790009CCF84E08093DF021092BA021092B902CB
:1017A000E091B702F091B80209958091B9028111D8
:1017B0000FC081E08093B9021092970209C0803C6B
:1017C00009F4A6CF883C09F4A3CF883B09F07DCF6C
:1017D000E091BA0281E08E0F8093BA02F0E0E95600
:1017E000FD4F80818093BB009091BA028091B90235
:1017F00029C0809104038093BB0085EC8093BC00DA
:1018000064CF9091030380910203981758F5E091FB
:10181000030381E08E0F80930303F0E0EE51FD4F50
:101820008081E9CFE091030381E08E0F8093030371
:101830008091BB00F0E0EE51FD4F80839091030357
:10184000809102039817C8F285E8D8CFE09103038E
:1018500081E08E0F809303038091BB00F0E0EE5196
:10186000FD4F80838091E10281115CCF81E0809304
:10187000E00284EA8093BC001092DF0226CF85EC60
:101880008093BC001092DF028091DD02803230F440
:10189000E091DD02F0E0E354FD4F10826091DD0243
:1018A00070E0E091BB02F091BC028DEB92E00995F3
:1018B0001092DD020ACF1092DE0234CF1F920F92F7
:1018C0000FB60F9211242F933F934F935F936F9313
:1018D0007F938F939F93AF93BF93CF93DF93EF93B8
:1018E000FF9380914A02C0914203D0E087FF24C059
:1018F000109285001092840080914A028F5F80933D
:101900004A0280914A02082E000C990B8C179D0701
:1019100024F480914A028C30C4F18091840090912B
:101920008500049680349C4908F47AC08091840034
:1019300090918500049676C080914A02082E000C92
:10194000990B8C179D07C4F6E0914A028E2FEE0F7B
:10195000990BFC01EE0FFF1FE80FF91FE25EFC4F31
:10196000808186FFC9CFE0914A028E2FEE0F990B3E
:10197000FC01EE0FFF1FE80FF91FE25EFC4F8081B4
:1019800060E08F730E948802B7CF2091840030916D
:101990008500E0914A028E2FEE0F990BFC01EE0FAD
:1019A000FF1FE80FF91FE25EFC4F81819281820FD9
:1019B000931F9093890080938800E0914A028E2FB4
:1019C000EE0F990BFC01EE0FFF1FE80FF91FE25E0F
:1019D000FC4F808186FF11C0E0914A028E2FEE0FEE
:1019E000990BFC01EE0FFF1FE80FF91FE25EFC4FA1
:1019F000808161E08F730E948802FF91EF91DF91F7
:101A0000CF91BF91AF919F918F917F916F915F9196
:101A10004F913F912F910F900FBE0F901F901895EF
:101A200080E49CE990938900809388008FEF8093F5
:101A30004A02E3CF1F920F920FB60F9211242F93F9
:101A40003F938F939F93AF93BF9380914202909166
:101A50004302A0914402B09145023091410223E03B
:101A6000230F2D3758F50196A11DB11D209341027A
:101A70008093420290934302A0934402B0934502A4
:101A80008091460290914702A0914802B09149028C
:101A90000196A11DB11D8093460290934702A09329
:101AA0004802B0934902BF91AF919F918F913F91AE
:101AB0002F910F900FBE0F901F90189526E8230FBF
:101AC0000296A11DB11DD2CF1F920F920FB60F9299
:101AD00011242F933F934F935F936F937F938F9333
:101AE0009F93AF93BF93EF93FF93809129029091BF
:101AF0002A02A0912B02B0912C02892B8A2B8B2BCE
:101B0000D1F190912802E0912602F0912702808184
:101B1000892780838091290290912A02A0912B022B
:101B2000B0912C02181619061A061B069CF4809117
:101B3000290290912A02A0912B02B0912C020197C8
:101B4000A109B1098093290290932A02A0932B0244
:101B5000B0932C02FF91EF91BF91AF919F918F9124
:101B60007F916F915F914F913F912F910F900FBE99
:101B70000F901F901895809100010E941405EACFE4
:101B8000109215031092140388EE93E0A0E0B0E0E9
:101B90008093160390931703A0931803B09319032F
:101BA00083E191E090931303809312031092490311
:101BB0001092480385E291E0909347038093460397
:101BC00010924F0387E280934A0380E18093500391
:101BD00082E08093510310925203809142038C3033
:101BE00028F591E0980F909342038093430390E08F
:101BF000FC01EE0FFF1FE80FF91FE25EFC4F88EBC0
:101C00009BE09283818368EC71E08BE593E00E9416
:101C1000410983E08093530381E18093540384E07E
:101C20008093550385E08093560308958FEF80934A
:101C30004303E9CFCF93DF93CDB7DEB7AD970FB6B0
:101C4000F894DEBF0FBECDBF789484B5826084BDAA
:101C500084B5816084BD85B5826085BD85B58160B0
:101C600085BD80916E00816080936E00109281002E
:101C700080918100826080938100809181008160E9
:101C800080938100809180008160809380008091AA
:101C9000B10084608093B1008091B0008160809336
:101CA000B00080917A00846080937A0080917A00FD
:101CB000826080937A0080917A00816080937A00BC
:101CC00080917A00806880937A001092C10061E070
:101CD00083E00E94F50261E084E00E94F50261E089
:101CE00085E00E94F50260E08AE00E94F50260E073
:101CF00089E00E94F50260E08DE00E94F50260E05C
:101D00008CE00E94F50260E08EE00E94F50260E047
:101D10008FE00E94F50260E080E10E94F50261E040
:101D200081E10E94F50210915303809143038C30AE
:101D300008F052C061E0812F0E94F50280914303B8
:101D4000282F30E0F901EE0FFF1FE20FF31FE25ED4
:101D5000FC4F1F739081907C912B908310924403D1
:101D6000109245032CE0622F0E941917829FB00148
:101D7000112430E020E0AB01420F531FFA01EE0FB7
:101D8000FF1FE40FF51FE25EFC4F908196FD16C029
:101D90002F5F3F4F2C30310571F781110FC010922A
:101DA000800082E080938100109285001092840070
:101DB000B19A80916F00826080936F00E09143033D
:101DC0008E2F90E0FC01EE0FFF1FE80FF91FE25E7F
:101DD000FC4F80818064808390E080E00E940B0152
:101DE00064E670E080E090E00E94440410928E026D
:101DF00010928D021092900210928F020E94B602F1
:101E00008EEA91E09093B8028093B7028FEA91E056
:101E10009093BC028093BB0210924B0380915103BC
:101E2000823018F098E090934B0380934E0362E366
:101E300070E080E090E00E94440488E0F82EF09288
:101E4000520368E086E493E00E945D0362E370E081
:101E500080E090E00E94440460E386E493E00E9406
:101E60002B070BE416E4C8010197F1F760E386E461
:101E700093E00E942B07C8010197F1F760E386E425
:101E800093E00E942B0783E592E00197F1F760E26F
:101E900086E493E00E942B0760914B03606240E070
:101EA00086E493E00E94440784E080934C0340E082
:101EB0006CE086E493E00E9444070E948E0782E073
:101EC00080934D0340E066E086E493E00E9444077F
:101ED00040E062E086E493E00E9444078BE39FE1E8
:101EE0000197F1F767EA71E0CE0101960E9441097E
:101EF00040E060E0CE0101960E94F407CE01019619
:101F00000E94520968EB71E0CE0101960E944109DE
:101F100041E060E0CE0101960E94F407CE010196F7
:101F20000E94520968E873E180E090E00E94440456
:101F300020E030E0A9016CEB72E0809154030E9434
:101F4000400568E770E080E090E00E94440420E0F3
:101F500030E0A90164E873E0809154030E944005D9
:101F600068EC70E080E090E00E94440480915403AB
:101F70000E9414050E948E07F092520360E086E4EE
:101F800093E00E945D0388248A9493E0992EA12C0B
:101F9000B12C20E0E22E20E0F22E8EE00E942603FB
:101FA0008C0190933C0280933B020E947604892B23
:101FB000F1F460910D0370E090E080E00E948415E0
:101FC00060930503709306038093070390930803BF
:101FD00060910F0370E090E080E00E9484156093B0
:101FE000090370930A0380930B0390930C03609191
:101FF000090370910A0380910B0390910C030E94D6
:10200000191870933A02609339020E947604892B62
:10201000F1F460910D0370E090E080E00E9484157F
:10202000609305037093060380930703909308035E
:1020300060910F0370E090E080E00E94841560934F
:10204000090370930A0380930B0390930C03609130
:1020500005037091060380910703909108030E9485
:10206000191870933802609337028FE00E9426039C
:1020700024EC39E0DC010E942D17A50194010E9497
:102080007F16CA01B9016C5F7F4F8F4F9F4F0E942F
:10209000861520E030E048EC52E40E94A7176093D8
:1020A0003D0270933E0280933F0290934002609302
:1020B000330270933402809335029093360260911C
:1020C0005703709158038091590390915A030E94CD
:1020D000191870933202609331028091300281119D
:1020E00099C1B801CE0182960E940D0969EC71E098
:1020F000CE0188960E944109BE016E5D7F4FCE01E0
:1021000088960E948908BC01CE0101960E94F308BE
:1021100040E060E0CE0101960E94F407CE010196F6
:102120000E945209CE0188960E945209CE018296E1
:102130000E9452098091390290913A026DEC71E04F
:1021400088329105BCF49C012452310964ED71E0A0
:102150002430310578F09C01205231096BED71E09B
:102160002430310538F04A9762EE71E0069710F09E
:1021700069EE71E08BE593E00E94BD086BE573E0CA
:10218000CE0182960E94F30860EF71E0CE0188963E
:102190000E944109BE016E5D7F4FCE0188960E946C
:1021A0008908BC01CE0101960E94F30840E069E075
:1021B000CE0101960E94F407CE0101960E945209B9
:1021C000CE0188960E945209CE0182960E94520941
:1021D000809137029091380264EF71E08634910566
:1021E000BCF49C012C5331096BED71E02A303105B0
:1021F00078F09C012E5131096BEF71E02E313105E1
:1022000038F0499762EE71E0059710F062E072E0F5
:102210008BE593E00E94BD086BE573E0CE018296EA
:102220000E94F30869E072E0CE0188960E9441099D
:10223000BE016E5D7F4FCE0188960E948908BC0169
:10224000CE0101960E94F30841E060E0CE010196C4
:102250000E94F407CE0101960E945209CE01889691
:102260000E945209CE0182960E9452092AE939E958
:1022700049E550E460913302709134028091350257
:10228000909136020E943A1720E030E048EC52E488
:102290000E94C11520E030E040EA52E40E94A717F6
:1022A00020E030E048EC52E40E94C11560935703EF
:1022B000709358038093590390935A030E941918FE
:1022C000CE0182960E94C7086DE072E0CE0188962A
:1022D0000E944109BE016E5D7F4FCE0188960E942B
:1022E000890861E172E00E947308BC01CE01019689
:1022F0000E94F30841E069E0CE0101960E94F407D4
:10230000CE0101960E945209CE0188960E94520980
:10231000CE0182960E945209809131029091320240
:102320004E9771F46CE571E0CE0101960E9441096F
:10233000CE0101960E945A09CE0101960E945209CF
:1023400060913B0270913C02CE0101960E940D0902
:102350006EE471E0CE0101960E94DF07182FCE01D6
:1023600001960E945209112309F41EC180912F0287
:10237000811119C081E080932F026DE271E0CE01DE
:1023800001960E94410940E060E0CE0101960E9462
:10239000F407CE0101960E94520968EB7BE080E0D1
:1023A00090E00E9444048DE00E945F02892B09F4B2
:1023B000FEC08AE00E945F0260E971E0892B09F0AB
:1023C00004C180912D0290912E0244976CF080916F
:1023D0003002882309F406C11092300210922E02B6
:1023E00010922D020E948E0780912D0290912E0254
:1023F000019690932E0280932D026AEF70E080E0A8
:1024000090E00E944404E114F10409F4C6CD0E9456
:102410000000C3CD9801ACE9BFEF0E942517A501CC
:1024200094010E947F16CA01B9016C597F4F8F4FEA
:102430009F4FCE0182960E94C70869EC71E0CE01E1
:1024400088960E944109BE016E5D7F4FCE0188963D
:102450000E94890864E172E00E947308BC01CE0109
:1024600001960E94F30840E060E0CE0101960E94D0
:10247000F407CE0101960E945209CE0188960E946F
:102480005209CE0182960E945209609139027091E0
:102490003A02CE0182960E94C70860EF71E0CE0139
:1024A00088960E944109BE016E5D7F4FCE018896DD
:1024B0000E94890869E172E00E947308BC01CE01A4
:1024C00001960E94F30840E069E0CE0101960E9467
:1024D000F407CE0101960E945209CE0188960E940F
:1024E0005209CE0182960E94520960913702709182
:1024F0003802CE0182960E94C70869E072E0CE01E0
:1025000088960E944109BE016E5D7F4FCE0188967C
:102510000E94890864E172E00E947308BC01CE0148
:1025200001960E94F30841E060E0CE0101960E940E
:10253000F407CE0101960E945209CE0188960E94AE
:102540005209CE0182960E94520960913302709125
:10255000340280913502909136021BA21AA21DA26C
:102560001CA21FA21EA28E010F5F1F4F22E044E09B
:102570000E94FA12009799F0BC01CE0182960E9447
:10258000BD086DE072E0CE0188960E944109BE014F
:102590006E5D7F4FCE0188960E948908A6CECE013F
:1025A00082960E946108EDCF10922F02FCCE8CE043
:1025B0000E945F02892B09F404CF89E00E945F0228
:1025C000892B09F4FECE68E971E0CE0101960E94E4
:1025D0004109CE0101960E94390ACE0101960E945E
:1025E0005209EFCE81E080933002F8CE8BE593E084
:1025F0000C945209EF920F931F93CF93DF93E8014E
:1026000034E047FD34E1042E000C550B57FF03C0A6
:10261000519541955109E32E022F242FAE010E94BE
:102620003D13CE01DF91CF911F910F91EF9008954F
:10263000BB274A3031F4992322F4BDE2909581956D
:102640009F4F0C942413BB27FB015527AA27880F03
:10265000991FAA1FA41710F0A41B83955051B9F716
:10266000A05DAA3308F0A95DA193009779F7B11195
:10267000B1931192CB010C947415A9E0B0E0E3E49E
:10268000F3E10C94B7166A01F22EB02E102FFBE383
:10269000AF2EA01608F41BE31F5F012F27E0AE0149
:1026A0004F5F5F4F0E949C14BC018981982F9970E5
:1026B000913009F43FC09BE2E1FC04C09E2D917073
:1026C000E0FC3AC05E2D5071E82FE87083FF46C0F1
:1026D00084E0911101C083E0EF2DE81B8F1508F015
:1026E000E0E0D6018E2F20E2552351F1992329F005
:1026F000D6019C93C60101966C0196012D5F3F4F58
:10270000E2FE24C08EE4D6018C9391E411969C9352
:10271000119712968C93D9018E2F90E281111BC0D4
:10272000E20FF32FF11D10828EEF9FEF2996ECE060
:102730000C94D3169DE2C6CF90E2C4CF2D93815066
:102740008111FCCFCE0ED11CE0E0D0CF8EE6D601B9
:102750008C9391E6DBCF9D938150E0CF482F44705E
:1027600082FF3DC084E0911101C083E08F1510F419
:10277000EF2DE81BD6018E2F20E2552309F1992376
:1027800029F0D6019C93C60101966C0196012D5F3C
:102790003F4FE2FE1BC089E4D6018C938EE4119674
:1027A0008C93119786E412968C93D9018E2F90E228
:1027B000882309F4B5CF9D938150FACF2D93815092
:1027C0008111FCCFCE0ED11CE0E0D9CF89E6D60135
:1027D0008C938EE611968C93119786E6E4CF9B013D
:1027E00077FF02C030E020E0A1E0B0E0911102C02C
:1027F000B0E0A0E0F9013196AE0FBF1F8B2C912CF9
:10280000BB2009F461C05401EFEFAE1ABE0AAA0D55
:10281000BB1DFA161B0619F014F04F2D4A1B51115F
:1028200088C0E3FC59C07601A42FB0E2A1114FC0CB
:10283000C40ED11C992309F45BC040E0D601119667
:10284000F60190836D01552309F448C0012F060F4E
:102850009A81582F507184FF03C0913309F40150BD
:1028600010160CF047C0093008F008E0EEE2FE2E2A
:102870005B01A01AB10885019194819491082F3FC2
:10288000320729F4D601FC92F60131966F016217E6
:10289000730794F1021713077CF5DB01A21BB30B3E
:1028A000AA24A394B12CAC0EBD1EAA0DBB1D11967B
:1028B0008C9121503109D601119628153905F4F073
:1028C000F60180836D01DBCFB12CA12CA0CFF701E5
:1028D000B1937F01A150AACF9111B0CFD601942F0F
:1028E00050E302C05D9391509111FCCFC40ED11CF6
:1028F00040E0ACCF01E0BACF80E3DBCF62177307D3
:1029000031F4963388F4953311F4552369F0F601C8
:102910008083FD01842F90E2811108C0A40FB11DB6
:102920001C9290E080E002CF81E3F1CF919381503F
:10293000F3CF911183CF8ACF283008F027E03327D7
:10294000DA01990F311D87FD9160009661057105CF
:1029500039F432602E5F3D9330E32A95E1F7089514
:102960009F3F30F080387105610509F03C5F3C5FA6
:102970003D93913008F08068911DDF93CF931F93B2
:102980000F93FF92EF92192F987F9695E92F9695C6
:102990009695E90FFF27EE53FF4F99273327EE2433
:1029A000FF24A701E70105900894079428F4360F47
:1029B000E71EF81E491F511D660F771F881F991FBC
:1029C0000694A1F70590079428F4E70EF81E491F16
:1029D000561FC11D770F881F991F661F0694A1F708
:1029E0000590079428F4F80E491F561FC71FD11DE4
:1029F000880F991F661F771F0694A1F7059007940B
:102A000020F4490F561FC71FD81F990F661F771F45
:102A1000881F0694A9F784911095177041F0D695F8
:102A2000C79557954795F794E7941A95C1F7E8E647
:102A3000F0E0689415901591359165919591059008
:102A40007FE27395E118F10A430B560BC90BD009CD
:102A5000C0F7E10CF11E431F561FC91FD01D7EF4A5
:102A6000703311F48A95E6CFE894015030F0080FE6
:102A70000AF40027021708F4202F2395022F7A3337
:102A800028F079E37D932A95E9F710C07D932A9584
:102A900089F6069497956795379517951794E118D9
:102AA000F10A430B560BC90BD00998F023957E9180
:102AB00073957A3308F070E37C932013B8F77E9116
:102AC00070617D9330F0839571E37D9370E32A9577
:102AD000E1F71124EF90FF900F911F91CF91DF91BB
:102AE000992787FD90950895DC01FC01672F71916E
:102AF0007723E1F7329704C07C916D9370836291E4
:102B0000AE17BF07C8F30895E89409C097FB3EF4D9
:102B100090958095709561957F4F8F4F9F4F99232A
:102B2000A9F0F92F96E9BB279395F69587957795A8
:102B30006795B795F111F8CFFAF4BB0F11F460FF68
:102B40001BC06F5F7F4F8F4F9F4F16C0882311F0C0
:102B500096E911C0772321F09EE8872F762F05C0D4
:102B6000662371F096E8862F70E060E02AF09A956F
:102B7000660F771F881FDAF7880F9695879597F964
:102B800008950E94D4150C9445160E94371638F00B
:102B90000E943E1620F0952311F00C942E160C94F2
:102BA000341611240C9479160E94561670F3959FD2
:102BB000C1F3950F50E0551F629FF001729FBB2734
:102BC000F00DB11D639FAA27F00DB11DAA1F649FD0
:102BD0006627B00DA11D661F829F2227B00DA11D83
:102BE000621F739FB00DA11D621F839FA00D611D09
:102BF000221F749F3327A00D611D231F849F600D2A
:102C0000211D822F762F6A2F11249F5750409AF052
:102C1000F1F088234AF0EE0FFF1FBB1F661F771FDE
:102C2000881F91505040A9F79E3F510580F00C94A9
:102C30002E160C9479165F3FE4F3983ED4F38695F4
:102C400077956795B795F795E7959F5FC1F7FE2B49
:102C5000880F911D9695879597F9089597F99F6725
:102C600080E870E060E008959FEF80EC0895002414
:102C70000A941616170618060906089500240A94E1
:102C800012161306140605060895092E0394000C67
:102C900011F4882352F0BB0F40F4BF2B11F460FFF6
:102CA00004C06F5F7F4F8F4F9F4F089557FD90581F
:102CB000440F551F59F05F3F71F04795880F97FB00
:102CC000991F61F09F3F79F08795089512161306BA
:102CD0001406551FF2CF4695F1DF08C016161706E9
:102CE0001806991FF1CF869571056105089408951E
:102CF000E894BB2766277727CB0197F90895052E1F
:102D000097FB1EF400940E94961657FD07D00E9470
:102D1000E81607FC03D04EF40C9496165095409597
:102D2000309521953F4F4F4F5F4F08959095809577
:102D3000709561957F4F8F4F9F4F08950E940A179E
:102D4000A59F900DB49F900DA49F800D911D1124FF
:102D50000895B7FF0C949E160E949E16821B930B3B
:102D600008952F923F924F925F926F927F928F922F
:102D70009F92AF92BF92CF92DF92EF92FF920F930A
:102D80001F93CF93DF93CDB7DEB7CA1BDB0B0FB614
:102D9000F894DEBF0FBECDBF09942A8839884888D1
:102DA0005F846E847D848C849B84AA84B984C88467
:102DB000DF80EE80FD800C811B81AA81B981CE0F5E
:102DC000D11D0FB6F894DEBF0FBECDBFED01089543
:102DD000A1E21A2EAA1BBB1BFD010DC0AA1FBB1F1F
:102DE000EE1FFF1FA217B307E407F50720F0A21B91
:102DF000B30BE40BF50B661F771F881F991F1A94FE
:102E000069F760957095809590959B01AC01BD0127
:102E1000CF010895A29FB001B39FC001A39F700D81
:102E2000811D1124911DB29F700D811D1124911DD2
:102E30000895991B79E004C0991F961708F0961B16
:102E4000881F7A95C9F7809508950E940A17332341
:102E500012F48A1B9B0B0C942F170E940A17B7FFC2
:102E60000895821B930B0895EE0FFF1F0590F491B8
:102E7000E02D09945058BB27AA270E9452170C94A2
:102E800045160E94371638F00E943E1620F039F49D
:102E90009F3F19F426F40C9434160EF4E095E7FBEA
:102EA0000C942E16E92F0E94561658F3BA17620793
:102EB00073078407950720F079F4A6F50C9478162B
:102EC0000EF4E0950B2EBA2FA02D0B01B901900145
:102ED0000C01CA01A0011124FF27591B99F0593F89
:102EE00050F4503E68F11A16F040A22F232F342FD1
:102EF0004427585FF3CF469537952795A795F0401F
:102F00005395C9F77EF41F16BA0B620B730B840B33
:102F1000BAF09150A1F0FF0FBB1F661F771F881FEB
:102F2000C2F70EC0BA0F621F731F841F48F4879543
:102F300077956795B795F7959E3F08F0B0CF939535
:102F4000880F08F09927EE0F9795879508950E94AE
:102F5000BB170C9445160E943E1658F00E94371677
:102F600040F029F45F3F29F00C942E1651110C9477
:102F700079160C9434160E94561668F39923B1F30F
:102F8000552391F3951B550BBB27AA27621773078F
:102F9000840738F09F5F5F4F220F331F441FAA1F23
:102FA000A9F335D00E2E3AF0E0E832D091505040DF
:102FB000E695001CCAF72BD0FE2F29D0660F771F8D
:102FC000881FBB1F261737074807AB07B0E809F073
:102FD000BB0B802DBF01FF2793585F4F3AF09E3FF8
:102FE000510578F00C942E160C9479165F3FE4F39B
:102FF000983ED4F3869577956795B795F7959F5F3B
:10300000C9F7880F911D9695879597F90895E1E086
:10301000660F771F881FBB1F621773078407BA07E5
:1030200020F0621B730B840BBA0BEE1F88F7E09540
:1030300008950E9420186894B1110C94791608958F
:103040000E945E1688F09F5798F0B92F9927B751C4
:10305000B0F0E1F0660F771F881F991F1AF0BA953C
:10306000C9F714C0B13091F00E947816B1E008950C
:103070000C947816672F782F8827B85F39F0B93FFE
:10308000CCF3869577956795B395D9F73EF49095EF
:103090008095709561957F4F8F4F9F4F08950F9347
:1030A0001F93CF93DF938230910510F482E090E07C
:1030B000E0916303F091640330E020E0B0E0A0E031
:1030C000309799F42115310509F44AC0281B390BB2
:1030D00024303105D8F58A819B816115710589F10C
:1030E000FB0193838283FE0111C0408151810281E3
:1030F000138148175907E0F04817590799F41097BA
:1031000061F012960C93129713961C933296CF018E
:10311000DF91CF911F910F91089500936303109356
:103120006403F4CF2115310551F04217530738F0ED
:10313000A901DB019A01BD01DF01F801C1CFEF0157
:10314000F9CF9093640380936303CDCFFE01E20F28
:10315000F31F819391932250310939832883D7CF6C
:103160002091610330916203232B41F420910301EC
:103170003091040130936203209361032091010197
:10318000309102012115310541F42DB73EB7409130
:10319000050150910601241B350BE0916103F0916C
:1031A0006203E217F307A0F42E1B3F0B2817390721
:1031B00078F0AC014E5F5F4F2417350748F04E0F93
:1031C0005F1F5093620340936103819391939FCF5C
:1031D000F0E0E0E09CCFCF93DF930097E9F0FC01B3
:1031E000329713821282A0916303B0916403ED01C0
:1031F00030E020E01097A1F420813181820F931FED
:1032000020916103309162032817390709F061C0EA
:10321000F0936203E0936103DF91CF910895EA0197
:10322000CE17DF07E8F54A815B819E014115510504
:10323000B1F7E901FB83EA8349915991C40FD51F86
:10324000EC17FD0761F4808191810296840F951F30
:10325000E90199838883828193819B838A83F0E04B
:10326000E0E012968D919C9113970097B9F52D91FE
:103270003C911197CD010296820F931F209161031B
:10328000309162032817390739F6309751F51092BB
:10329000640310926303B0936203A0936103BCCFF5
:1032A000D383C28340815181840F951FC817D907EA
:1032B00061F44E5F5F4F88819981480F591F518398
:1032C00040838A819B81938382832115310509F094
:1032D000B0CFF0936403E09363039ECFFD01DC0164
:1032E000C0CF13821282D7CFB0E0A0E0EAE7F9E1C5
:1032F0000C94B3168C01009751F4CB010E944F1827
:103300008C01C801CDB7DEB7E0E10C94CF16FC010B
:10331000E60FF71F9C0122503109E217F30708F46A
:103320009DC0D901CD91DC911197C617D70798F0B0
:10333000C530D10530F3CE0104978617970708F3FF
:10334000C61BD70B2297C193D1936D937C93CF016A
:103350000E94EB18D6CF5B01AC1ABD0A4C018C0E53
:103360009D1EA0916303B0916403512C412CF12C5C
:10337000E12C109731F580916103909162038815DB
:10338000990509F05CC04616570608F058C08091B0
:10339000010190910201009741F48DB79EB74091D1
:1033A000050150910601841B950BE817F90708F0F9
:1033B00055C0F0936203E0936103F9017183608368
:1033C000A0CF8D919C91119712966C9012971396A5
:1033D0007C901397A815B90559F56C0142E0C40E0D
:1033E000D11CCA14DB0420F1AC014A195B09DA01D3
:1033F0001296159780F06282738251834083D901BF
:103400006D937C93E114F10471F0D7011396FC9352
:10341000EE93129776CF22968C0F9D1FF901918320
:103420008083F301EFCFF0936403E093630369CFEC
:103430004816590608F42C017D01D3019ACFCB011F
:103440000E944F187C01009749F0AE01B8010E941C
:10345000391AC8010E94EB18870153CF10E000E031
:1034600050CF9111089581568A5108F480528558A1
:103470000895FB01DC0102C001900D9241505040C3
:10348000D8F70895FB01DC018D910190801901109E
:10349000D9F3990B0895FB01DC0101900D920020F6
:1034A000E1F7089510E0C0EED0E004C0FE010E94F4
:0E34B00034172196C13ED107C9F7F894FFCF1B
:1034BE00FF0000650380000000400014005400006F
:1034CE000000000702DA012807B001D301C001B1E4
:1034DE000100000000A107F10628072707436861D5
:1034EE007267696E672E2E2E004E69676874200013
:1034FE0044696D20202000436C6561722000537575
:10350E006E6E7920004572726F7220004C6F7720BC
:10351E004261747465727900506C65617365204305
:10352E00686172676521005761746572696E672004
:10353E00007761746572696E6720506C616E7400FD
:10354E00506C616E74203100506C616E74203200CC
:10355E0020446F6E652100534D4152542049525202
:10356E0049474154494F4E002020202020535953A3
:10357E0054454D202020202000533A2000486F74DF
:10358E00202020005761726D2020004D696420209C
:10359E0020004C6F7720202000436F6C64202000A9
:1035AE00543A2000486967682020004265737420F1
:1035BE00200044727920202000483A2000563A20FC
:0C35CE00002520002520202000432000C4
:00000001FF
